:020000040800F2
:10000000B8B50020C9020008D1020008D3020008D8
:10001000D5020008D7020008D9020008000000003D
:100020000000000000000000000000000D020008B9
:10003000DD020008000000006102000845360008EB
:10004000E3020008E3020008E3020008E3020008FC
:10005000E3020008E3020008E3020008E3020008EC
:10006000E3020008E3020008E3020008E3020008DC
:10007000E3020008E3020008E3020008E3020008CC
:10008000E3020008E3020008E3020008E3020008BC
:10009000E3020008E3020008E3020008E3020008AC
:1000A000E3020008E3020008E3020008E30200089C
:1000B000E3020008E3020008E3020008E30200088C
:1000C000E3020008E3020008E3020008E30200087C
:1000D000E3020008E3020008E3020008E30200086C
:1000E0005D080008E3020008E3020008E3020008DC
:1000F000E3020008E3020008E3020008E30200084C
:10010000E3020008E3020008E3020008E30200083B
:1001100065370008E3020008E3020008E302000874
:100120004D060008E3020008E3020008E3020008AD
:10013000E30200082D070008E3020008E3020008BC
:10014000E3020008E3020008E3020008E3020008FB
:10015000E3020008E3020008E3020008DD3B0008B8
:10016000E3020008E3020008E3020008E3020008DB
:10017000E3020008E3020008E302000800000000B8
:10018000E3020008E3020008E3020008E3020008BB
:10019000E3020008E3020008E3020008E3020008AB
:1001A000E3020008E3020008E3020008E30200089B
:1001B000E3020008E3020008E3020008E30200088B
:1001C000E3020008E302000800000000E302000868
:1001D000E3020008E3020008E3020008E30200086B
:1001E000E3020008E3020008E3020008E30200085B
:1001F000E3020008E3020008DFF80CD000F00EF97B
:100200000048004701790008B8B500202B4B196859
:100210000868B0E8F04F80F30988BFF36F8F4FF0A4
:10022000000080F311887047000000000648006855
:10023000006880F3088862B661B6BFF34F8FBFF3E2
:100240006F8F00DF00BF00BF08ED00E0DFF80C009B
:10025000016841F470010160704700BF88ED00E063
:10026000EFF30980BFF36F8F144B1A681EF0100F65
:1002700008BF20ED108A20E9F04F106008B44FF05D
:10028000500072B680F31188BFF34F8FBFF36F8FAA
:1002900062B610F005FB4FF0000080F3118808BC37
:1002A00019680868B0E8F04F1EF0100F08BFB0ECF6
:1002B000108A80F30988BFF36F8F704750000020C9
:1002C000EFF3058070470000064880470648004766
:1002D000FEE7FEE7FEE7FEE7FEE7FEE7FEE7FEE7F6
:1002E000FEE7FEE711370008F90100082DE9F05F8D
:1002F0000546002092469B46884606468146402495
:100300001BE0284641464746224600F076F8534611
:100310005A46C01A914110D311461846224600F0A1
:100320005DF82D1A67EB01084F4622460120002197
:1003300000F054F817EB00094E41201EA4F101040F
:10034000DFDC484631462A464346BDE8F09F40EA96
:1003500001039B0703D009E008C9121F08C0042A43
:10036000FAD203E011F8013B00F8013B521EF9D22A
:100370007047D2B201E000F8012B491EFBD2704752
:100380000022F6E710B513460A4604461946FFF761
:10039000F0FF204610BD30B504460020034600E0C3
:1003A0005B1C934203D2E05CCD5C401BF8D030BDB7
:1003B00030B50B46014600202022012409E021FA35
:1003C00002F59D4205D303FA02F5491B04FA02F532
:1003D0002844151EA2F10102F1DC30BD202A04DB05
:1003E000203A00FA02F1002070479140C2F1200348
:1003F00020FA03F3194390407047202A04DB203A87
:1004000021FA02F00021704721FA02F3D040C2F134
:10041000200291400843194670470000064C074DE2
:1004200006E0E06840F0010394E8070098471034C4
:10043000AC42F6D3FFF7E4FE0817010828170108BD
:1004400070B58C1810F8015B15F0070301D110F896
:10045000013B2A1106D110F8012B03E010F8016BC3
:1004600001F8016B5B1EF9D12B0705D40023521E46
:100470000DD401F8013BFAE710F8013BCB1A921CAE
:1004800003E013F8015B01F8015B521EF9D5A142AC
:10049000D8D3002070BD10B50146806B026C12F0FD
:1004A000500F05D0806BC26C0846BDE81040104765
:1004B000016C41F40071016401688A6812F0405FC8
:1004C00017D18269AAB9CA6A12F4700F02D08A6879
:1004D00052050ED44A6822F020024A60016C21F4D1
:1004E00080710164016CC90403D4016C41F0010105
:1004F000016400F069FA10BD10B5806B4021016401
:10050000416C41F00401416400F060FA10BD10B587
:10051000806B00F05AFA10BD49496FF0706210B557
:10052000D1F8043323F44033C1F80433D1F8043351
:1005300044682343C1F8043301684B6823F4807393
:100540004B60016803694C6844EA03234B6001680F
:100550004B6823F040734B60016884684B68234309
:100560004B6001688B6823F400638B600168C4688A
:100570008B6823438B60816AD14201688A6822F0CC
:1005800070628A6001680DD0836A8A681A438A6043
:1005900001688A6822F040528A600168C36A8A68EA
:1005A0001A4302E08A6822F040528A6001688A6831
:1005B00022F002028A60016882698B6843EA420283
:1005C0008A60016A0029016811D01E4A4B6843F411
:1005D00000634B6001684B6823F460434B60016823
:1005E000446A4B6802EB443213434B6003E04A68B1
:1005F00022F400624A600168134BCA6A22F4700256
:10060000CA620168848BCA6A03EB04531A43CA6244
:1006100001688A6822F400728A600168026B8B6844
:1006200043EA42228A6001688A6822F480628A6012
:10063000016840698A6842EA8020886010BD000035
:100640000020014000E0FFFF0000F0FF014800F043
:10065000D5BA00003479002001681823CAB2103AD4
:10066000B2FBF3F2054B6FF30901032A9B5CC365F0
:1006700000D9091D8165084670470000E013010894
:1006800010B583694FF0C074826A0146002053B1EF
:10069000B3F5005F15D072B1012A0CD0022A0AD03E
:1006A000032A09D104E01AB1012A06D0022A03D193
:1006B000C96AC90100D5012010BDC96AA142FAD09A
:1006C00010BD002AF7D0012AF2D0022AF3D0032A63
:1006D000F3D010BD30B50468256825F48025256069
:1006E000046863608368402B036803D099600068E6
:1006F000C26030BD9A600068C16030BD38B5044644
:10070000006800F58050816941F4801181612068A2
:1007100000F5805080690090012000F0EFFB206818
:10072000009900F58050816138BD0000014800F05B
:100730005CBD0000A47800202DE9F041044621B101
:100740004FF40061C800C4E90201E06900250028F7
:1007500062D028462368D4E9021C3A4F40261A6822
:1007600041EA0C0101433A4041F400701043186023
:1007700020680768012000F0C1FB2068076020683E
:10078000466020684668012000F0B8FB20684FF6FC
:1007900041724660206885602068C560216888696C
:1007A000104040F08000886120688669012000F0D8
:1007B000A5FB206886612068C5612068C5690120A5
:1007C00000F09CFB2068204B2049C561206800F5A3
:1007D000805082691A4011438161206800F5805081
:1007E0008569012000F08AFB2068194900F58050D6
:1007F0008561206800F580500160206800F5805018
:100800000568012000F07AFB206800F58050056043
:10081000A069012803D009E04FF480609AE72068BE
:100820000C4A00F58050C1691143C16160690A49F1
:1008300082880A640278D0F8010042EA0020486405
:10084000BDE8F0810F8120FF233FDEF80400200285
:100850008020C10240000100008002404FF400509F
:1008600000F0F4BFF8B50025009590F83C20012A6F
:1008700018D0012280F83C200A6807234E4C0668F5
:10088000092A1AD90A3A02EB4207F268BB409A4396
:10089000F2600E680268A64206D10B7AD66846EA74
:1008A000036308E00220F8BD0A3E8B68D76806EBB8
:1008B0004606B3403B43D3600EE002EB4207326989
:1008C000BB409A43326103680E788A681F6906EB61
:1008D0004606B2403A431A614A681F23072A13D2D8
:1008E0000668521E02EB8207726BBB409A4372632A
:1008F00003680E790A88761E5F6B92B206EB860655
:10090000B2403A435A6327E006680D2A12D2D21F3A
:1009100002EB8207326BBB409A43326302680E7966
:100920000B88F61F176B9BB206EB8606B3403B4362
:10093000136311E00D3A02EB8207F26ABB409A435F
:10094000F26202680E790B880D3ED76A9BB206EB05
:100950008606B3403B43D362184A0368934208D1EA
:100960000B68122B05D1D2F8043343F48003C2F88C
:100970000433036893421AD10B68A34201D0112BB0
:1009800015D1D2F8043343F40003C2F804330968E4
:10099000A1420CD10A490B4A0968B1FBF2F101EB03
:1009A0008101490000E0491E00910029FBD180F837
:1009B0003C500020F8BD0000120000100020014053
:1009C0000001002040420F0070477047704770B52B
:1009D00004004FF0000503D0206C002610B107E0A2
:1009E000012070BD6664204684F83C6000F01AF86F
:1009F000206CC00610D4206C20F4885040F0020017
:100A000020642046FFF788FD6664206C20F0020019
:100A100040F00100206400E0012584F83C60284695
:100A200070BD0000F0B522490646006887B08842D4
:100A30003CD12048016841F48061016000680324D2
:100A40000025694600F4806005904FF4FF608DE852
:100A50003100194800F006FF0D2069468DE831008D
:100A6000164800F0FFFE092069468DE83100144861
:100A700000F0F8FE14484FF4807C124C81050215FA
:100A800084E823004F13C4E90352C3142046C4E989
:100A900007C56562C4E9053700F080F920B14FF45D
:100AA00084710AA003F0A0F8B463A66307B0F0BD98
:100AB0000022014044380240001402400008024075
:100AC0000000024034790020106402402E2E2F5383
:100AD00072632F6164632E6300000000F8B5134653
:100AE0000A4600210446009190F83C00012807D0F6
:100AF000012084F83C0020688568ED0702D011E0F1
:100B00000220F8BD86682E4D46F0010686602D480D
:100B10000068B0FBF5F000EB400000E0401E0090E4
:100B20000028FBD120688568ED0746D0256C40F28F
:100B30000166B54345F4807525644068400505D5D8
:100B4000206C20F4005040F480502064206CC004DD
:100B500004D5606C20F00600606400E061646FF012
:100B6000220084F83C10A56B1749E963A56B17496F
:100B70002964A56B1649E96421680860206841680A
:100B800041F0806141602068816841F4807181603A
:100B90002168A06B4C3100F073F90E49D1F80403C1
:100BA000C006206801D0884207D1816811F0405FFB
:100BB00003D1816841F0804181600020F8BD0000D0
:100BC00040420F0000010020970400080F050008B4
:100BD000F90400080020014090F83510022903D0E4
:100BE0008021416501207047052180F8351000689B
:100BF000016821F001010160002070472DE9F843F0
:100C000004464FF00009644B0820CDF800904FF4E3
:100C10001652A56D94F85C101B682E68B3FBF2F7B2
:100C200000FA01F131420FD021680A6852070BD552
:100C30000A6822F004020A6094F85C108840A860F8
:100C4000606D40F00100606594F85C104FF00108A1
:100C500008FA01F0304208D021684969090604D534
:100C6000A860606D40F00200606594F85C1004209C
:100C70008840304208D021680968890704D5A860F7
:100C8000606D40F00400606594F85C1010208840AE
:100C9000304218D021680968090714D5A860206877
:100CA0000168490304D50068000308D5A16C07E07A
:100CB0000168C90503D4016821F008010160216CB5
:100CC00009B12046884794F85C10202088403042C3
:100CD00031D021680968C9062DD5A86094F835007F
:100CE00005282068016806D0490347D5006800033D
:100CF0001DD4616C1CE021F016010160206841697F
:100D000021F080014161206C08B9A06C20B12068FD
:100D1000016821F00801016094F85C303F229A409C
:100D2000AA6084F8349084F83580216D1FE0E16B6F
:100D300009B120468847606D00282BD0606DC00740
:100D400014D0052084F835002068016821F00101E5
:100D500001600098401C0090B84203D820680068E9
:100D6000C007F6D184F8349084F83580E16C00290E
:100D700010D001B02046BDE8F04308470168C9051E
:100D8000D5D4036823F01003036084F8349084F80A
:100D90003580CCE7BDE8F883000100202DE9F0475D
:100DA000044600F055FE054664B14FF0000984F892
:100DB0003490022184F835102068016821F0010187
:100DC00001600EE00120BDE8F08700BF00F040FEAA
:100DD000401B052805D920216165032084F83500D2
:100DE000F1E720680068C007F0D1D4E90020D4E919
:100DF0000251D4E9043C284304F11805194308437F
:100E0000116895E8E00140EA0C001C4B28431940AA
:100E100040EA060040EA0700B8F1040F40EA01008A
:100E200003D1D4E90B13194308431060206801264D
:100E3000656A4069042D20F0070045EA00050CD1E1
:100E4000D4E90A01054341B12046FFF719FC20B15E
:100E50004020606584F83560B4E72068456120462D
:100E6000FFF7FAFB94F85C303F229A408260C4F8A6
:100E7000549084F835600020A5E700003F8010E022
:100E80002DE9F041044690F8340000250128A66DB4
:100E90000ED094F835C00127002084F83470BCF1DE
:100EA000010F07D0022584F834002846BDE8F08100
:100EB0000220FBE7022784F8357060652046FFF7C3
:100EC00009FC94F85C103F208840B06020680168FD
:100ED00041F0160101602068416941F080014161E3
:100EE000206C20B12068016841F008010160206891
:100EF000016841F001010160D7E7000070B50446C8
:100F000000F0A6FD0546601C02D0044800780444A9
:100F100000F09EFD401BA042FAD370BDB00000203F
:100F20002DE9F047054690F845000C4601287DD094
:100F300002214FF0010985F84590002C85F84410F6
:100F400077D094E80901E7681843D4E90423D5E988
:100F5000021648EA070840EA0800D4F8208008434F
:100F600029681043626AD4E9067C18430B68304351
:100F700038433B4E40EA0C00A76A40EA08001043A1
:100F80003340384318430860286806680120FFF79B
:100F9000B5FF2868066004F13401D4E90B03276C1F
:100FA00091E8061018432B6811430843D4E91162F5
:100FB00040EA0C00384330431043586028684668C4
:100FC0000120FFF79BFF28684FF6417346602968B0
:100FD000E06C88602968206DC860B4F85460D4E97A
:100FE0001607216E2A68384341EA064CD4E919767F
:100FF000916940EA0C00384319403043084390613E
:10100000286886690120FFF779FF28688661D4E99E
:101010001B012A680843D0612868C4690120FFF7D2
:101020006DFF2868C46114E000E002E00220BDE822
:10103000F0872968D5E902030A68184322F4904230
:1010400010430860286804680120FFF757FF2868EC
:101050000460002185F84490084685F84510E6E7CD
:101060000F8120FF2DE9F04390F845400025012C29
:101070000DD04FF0010980F84590022644F2F45754
:1010800080F844605E1E4FF0004C816217E0022041
:10109000BDE8F083C5EBC51801EB451408EB480823
:1010A00002EB8808C4F800C0B542C4E9017804D254
:1010B00004F12008C4F80C8000E0E1606D1C9D4242
:1010C000E8D30368002403F58053D96080F8449086
:1010D00080F845402046DBE72DE9F04390F8454095
:1010E00091460022012C09D0C1620126022480F819
:1010F00045605D1E80F84440E70422E00220BDE820
:10110000F08300BFC2EBC21404EB440801EB4214AD
:1011100009EB880C2760C4F808C0D0F81CC0BCF1EB
:10112000000F05D1D4F800C04CF4400CC4F800C046
:10113000AA4204D204F1200CC4F80CC000E0E16023
:10114000521C9A42DED30268002302F580521161DC
:1011500080F8446080F845301846D0E7704730B5D5
:1011600090F845100023012908D0012280F845207D
:10117000022180F84410816A00241AE0022030BD68
:101180000D685B1CC5F30125022D0AD00D6815F40E
:10119000407F09D0836B5B1C012BC0E90D1313D07A
:1011A00013E08263016302E0856B6D1C8563C9688F
:1011B00081620D68002D01DB042BE1D380F844200F
:1011C00080F84540012030BD01630B68C3F30D4337
:1011D0001B1FC363036B9B680364C968816280F84B
:1011E000442080F84540002030BD70B504460068BA
:1011F000002500F5805001264169490608D52046A2
:1012000000F0C0F92068402100F58050416109E0FC
:101210004069C0070AD0204600F0C7FA206800F5F0
:101220008050466184F8446084F845504FF4803122
:10123000206800F580504161206800F580504069C9
:1012400000040CD52046FFF789FF20684FF40041C9
:1012500000F58050416184F8446084F8455070BDC9
:101260002DE9FC474FF000060400B146009603D07C
:1012700094F8440018B107E00120BDE8FC8720463F
:1012800084F8456000F0E4F86748016841F4804163
:101290000160006800F4804001906448016821F416
:1012A000000101600168226A11430160206800F5B5
:1012B0008050016841F00101016000F0C9FB4FF46A
:1012C000FA77054609E000BF00F0C2FB401BB842B8
:1012D00003D9032084F8440068E0206800F58050BA
:1012E0000068C007F0D12068006920F01C0500F0FC
:1012F000BDFF4F4A4F4902448A4202D245F00805D9
:1013000016E04D494D4A0144914202D245F00C0588
:101310000EE04B4A4B4902448A4209D34A4A4B49A0
:101320001044884202D245F0040501E045F0100562
:101330002068056100214FF40042204600F036FA93
:101340004FF00105B0BBFF20FFF7D8FD606890B3F8
:1013500000F07EFB804641F2883701216A46204634
:1013600000F0CCF800F074FBA0EB0800B84217D8EE
:1013700000984007F1D5002120464FF4805200F03C
:1013800015FAB8B900F064FB80466A460121204690
:1013900000F0B4F800F05CFBA0EB0800B8420BD9F9
:1013A00001212046FFF7C8F984F84450032084F84F
:1013B000456062E724E018E000988006E5D510213A
:1013C0006A46204600F09AF8D0B90098410703D544
:1013D0004FF40061E16000E0E660800701D5A6609F
:1013E00019E04FF48040A06015E0D4E90210C00875
:1013F00040EA510082B22046002100F0D7F930B116
:1014000001212046FFF798F984F8445034E740F66C
:10141000FF70FFF773FD49462046FFF78DF984F80A
:101420004450002029E700004438024004380140BD
:1014300000D3CEFEC0E1E40040F1E9FD40787D013B
:1014400000796CFC005A6202001F0AFA80F0FA026E
:10145000F0B5006887B02349884241D1224801682D
:1014600041F000710160016801F0007105910168AF
:1014700041F080610160016801F0806105910168BF
:1014800041F000610160006802240025694600F017
:101490000060059003260B2732208DE8F1001348E9
:1014A00000F0E0F9862069468DE8F100104800F070
:1014B000D9F9200369468DE8F1000E4800F0D2F911
:1014C0004FF4205069468DE8F1000B4800F0CAF94E
:1014D000002205213D2000F02DFB3D2000F01EFBE9
:1014E00007B0F0BD008002403038024000080240E2
:1014F0000000024000040240001802402DE9F047BD
:10150000044690F84400914682281DD082224FF66E
:10151000FF7084F844204FF4F863226803EA8111D5
:10152000258A136900EAC52003F01C031843014310
:1015300021F0020040F00105156100F089FA012751
:1015400006464FF4803811E00220BDE8F08700BF66
:1015500000F07EFA801B404506D3002084F84470DA
:1015600084F845000320F0E720680569E807EFD11B
:101570002068406981B2C9F8001084F844700020E6
:10158000E3E700000148006808F084BAE0000020AA
:10159000F8B5044690F84500012839D0012584F8B3
:1015A0004550022084F8440020680026016841F07C
:1015B000080101602068006800902846FFF79EFC43
:1015C0002168009808602068016841F0040101600A
:1015D0002068006800900120FFF790FC21680098C7
:1015E00008602046FFF78AF8206800F5805081697E
:1015F00041F400518161206800F58050816941F01B
:101600000201816184F84450002084F84560F8BDEF
:101610000220F8BDF8B5044690F84500012839D0FD
:10162000012584F84550022084F84400206800F524
:101630008050816921F400518161206800F580505B
:10164000816921F00201816120680026016821F092
:10165000040101602068006800900120FFF74EFC43
:101660002168009808602046FFF748F82068016864
:1016700021F0080101602068006800900120FFF758
:101680003DFC21680098086084F84450002084F8EC
:101690004560F8BD0220F8BDF0B590F84520002364
:1016A000012A13D0012680F84560022280F84420E8
:1016B0004FF0000561B1C76A3A68002A0BDA1221BF
:1016C00080F8441080F845500120F0BD0220F0BDA4
:1016D00080F84460F6E740F2F454A1420BD9B1FB24
:1016E000F4F204FB121CB1FBF4F2BCF1000F00D0C9
:1016F000521C012A45D13A68C1F30C0142F0405214
:101700003A60C26A5160C16A0A6842F000420A60E7
:10171000C16AC968C16236E0D7F800C02CF0405CED
:10172000C7F800C033B9C76AD7F800C04CF0805C76
:10173000C7F800C0D0F82CC0571EBB42CCF80440FC
:1017400014D1C76AC2F1010ED7F800C0CEEBCE1E8D
:101750004CF0005CC7F800C00EEB4E0ED0F82CC069
:1017600001EB8E07C7F30C07CCF80470C76AD7F8F3
:1017700000C04CF0004CC7F800C0C76A5B1CFF6893
:10178000C7629342C8D3016801F580514A69520784
:1017900005D504224A61016801F580514D6080F849
:1017A000446080F845500020F0BD70472DE9F041BD
:1017B000044690F8440042281ED042204FF6FF73A2
:1017C00084F8440096B220684FF4F867258A07EA47
:1017D00081110269466103EAC520236802F01C02F8
:1017E0001043014341F003051D6100F031F9012769
:1017F00006464FF4803811E00220BDE8F08100BFBA
:1018000000F026F9801B404506D3002084F8447080
:1018100084F845000320F0E720680569E807EFD168
:1018200084F84470E9E70000B0F5005F0AD106488B
:101830004188491C89B24180032901D90021418096
:101840000121017070470000E4000020044910B538
:101850000A68024202D00860FFF7E6FF10BD0000F0
:10186000143C01402DE9F84FDFF89CE100224FF0D5
:1018700001084FF0030B4FF00F0A00BF0B6808FA86
:1018800002F42340A34271D14D68022D01D0122DE4
:101890000FD1D5080E69570700EB8505A9462D6ABB
:1018A000FF0E0AFA07FCBE4025EA0C052E43C9F8D4
:1018B00020600F79550006680BFA05FC07F0030756
:1018C00026EA0C06AF40374307604E68012E05D06C
:1018D000022E03D0112E01D0122E0ED18668CF68B1
:1018E00026EA0C06AF403743876046680F79A64367
:1018F000C7F30017974037434760C4688E6824EAEF
:101900000C04AE402643C6604C68E40075D53F4CDD
:10191000256845F480452560246822F00306950774
:1019200004F4804400943A4C2D0F2644D6F808481D
:10193000DFF8E0C00AFA05F7604524EA070401D1A0
:1019400000272EE0344FB84201D1012729E0334F60
:10195000B84201D1022724E0314FB84201D1032718
:101960001FE0304FB84202D104271AE045E02E4F65
:10197000B84201D1052714E02C4FB84201D1062707
:101980000FE02B4FB84201D107270AE0294FB84298
:1019900001D1082705E0284FB84201D1092700E00E
:1019A0000A27AF4027437546C6F808784E68DEF828
:1019B0000040F60324EA030400D51C43124E2C60B9
:1019C000361D4D683468AD0324EA030400D51C437A
:1019D0000D4F346008374D683C68ED0224EA03047B
:1019E00000D51C43084D3C600C354E682C68B6028F
:1019F00024EA030400D51C432C60521C102AFFF477
:101A00003DAFBDE8F88F0000003C01404438024083
:101A10000030014000000240000402400008024083
:101A2000000C024000100240001402400018024066
:101A3000001C0240002002400024024042694A404B
:101A4000426170470AB1816170470904FBE70000F9
:101A50000148806870470000B0000020024881689B
:101A60000278114481607047B0000020032010B557
:101A700000F080F80F2000F005F800F023F80020B7
:101A800010BD000070B50D4D04464FF47A700C4A3D
:101A900029781268B0FBF1F0B2FBF0F000F02CFEF8
:101AA00048B9102C07D200222146501E00F042F8FF
:101AB00000206C6070BD012070BD0000B0000020EF
:101AC00000010020032010B500F054F800226FF050
:101AD0000B00114600F02EF800226FF00A001146AC
:101AE00000F028F800226FF00900114600F022F8FB
:101AF0000022501F114600F01DF80022101F114651
:101B000000F018F800220F21901E00F013F80022B8
:101B10000F21BDE81040501E00F00CB8410900F044
:101B20001F028900012001F1E0219040C1F800016D
:101B3000704700000E4BF0B41B680D46C3F3022340
:101B4000C3F10706042E00D90426191D072901D266
:101B5000002300E0DB1E012404FA06F19C40491E2C
:101B60002940641E994014402143F0BC01F010BB91
:101B70000CED00E0064900F0070210B54FF6FF0437
:101B80000868044B204040EA02201843086010BD5A
:101B90000CED00E00000FA051848F8B5016841F0C6
:101BA000805101600068164C00F080500090206861
:101BB00040F480302060FFF74BFF4FF47A76054603
:101BC00005E000BFFFF744FF401BB0420FD860683C
:101BD000C003F7D5206840F400302060FFF738FFDD
:101BE000054606E0FFF734FF401BB04201D9032051
:101BF000F8BD60688003F5D50020F8BD403802408C
:101C0000007000402DE9F84F04460078DFF8249476
:101C10004FF000063746C0070ED0D9F8001021F467
:101C20000001C9F80010D9F80010626B1143C9F81F
:101C30000010606B00B90126FE4D2068843500035A
:101C40000ED5E16B286820F4401008432860E06B53
:101C5000B0F5801F01D010B102E0012600E001279D
:101C600020684FF4800BC0020CD5216C286820F44A
:101C7000400008432860206C584501D1012601E04E
:101C800000B901272068C10100D50126800666D56C
:101C9000E8483830016841F0805101600068DFF8A1
:101CA00098A300F080500090DAF8001041F48071A1
:101CB000CAF80010FFF7CCFE804605E0FFF7C8FE2B
:101CC000A0EB080064287DD8DAF80000C005F5D53F
:101CD000DFF8608308F16808D8F8000010F440705D
:101CE0002AD0218E01F44071814225D0D8F800100D
:101CF000D8F8002021F4407142F48032C8F8002066
:101D0000D8F8002022F48032C8F80020C8F800106B
:101D1000D8F80000C0070FD0FFF79AFE824607E010
:101D2000FFF796FEA0EB0A0141F288308142CAD843
:101D3000D8F800008007F3D5206BC0F301210329F8
:101D40007ED0D9F8001021F4F811C9F80010228EC5
:101D5000D8F80010C2F30B021143C8F80010207825
:101D6000C00607D5286820F0807028602868A16B1D
:101D7000084328602188AF488830490405D5626E41
:101D8000016821F44031114301602188090405D51F
:101D9000A26E016821F44021114301602168C9034A
:101DA00005D5E26E016821F44011114301602168FC
:101DB000890305D5226F016821F4400111430160B8
:101DC000217800E034E1490605D5626C016821F014
:101DD0000301114301602178090605D5A26C016851
:101DE00021F00C01114301602188C90505D5E26C81
:101DF000016821F03001114301602188890505D572
:101E0000226D016821F0C00111430160218849055C
:101E100005D5626D016821F440711143016021888C
:101E2000090505D5A26D016821F4406111430160E7
:101E30002188C90407D5E26D016821F4405100E012
:101E40005FE0114301602188890405D5226E016895
:101E500021F44041114301602168490205D5A26F78
:101E6000016821F080611143016021684FF0006A30
:101E7000890209D5E26F016821F000611143016018
:101E8000E16F514500D1012721680A0700D50127DC
:101E9000490305D5626F016821F04071114301606B
:101EA0002168090206D5D4F88020016821F080510C
:101EB000114301602168490106D5D4F884200168E6
:101EC00021F00051114301602068000106D5D4F8CB
:101ED0008810286820F00070084328602068C0003F
:101EE00006D5D4F88C10286820F08060084328605C
:101EF000DFF84891012E0ED02068B0F1007F0AD0A3
:101F00008FE04F4AD9F80030104023F4F812024312
:101F1000C9F800201BE7D9F800004E4620F0806089
:101F2000C9F80000FFF794FD804605E0FFF790FD3B
:101F3000A0EB080064287BD830680001F6D4217833
:101F40003C487C30C90712D0616B81B9237A626842
:101F50000168D0F800C09201C1F3014142EA014298
:101F6000CCF3036142EA016141EA03710160216837
:101F70000A0303D5E26BB2F5801F04D0C9021AD55B
:101F8000216C594517D16368016894F80CC0026848
:101F90009B01C1F3014143EA0141C2F3027241EAEC
:101FA0000C6141EA027101602968626A21F01F0137
:101FB000521E114329602168C90110D5238A626825
:101FC0000168D0F800C09201C1F3036142EA034204
:101FD00042EA0162CCF3027142EA017101602168B8
:101FE00089010CD56168228A237B94F808C0890195
:101FF00041EA024141EA036141EA0C710160316842
:10200000B04641F080613160FFF722FD064604E0F2
:10201000FFF71EFD801B64280AD8D8F800000001D5
:10202000F6D5E7B3D9F800004E4620F0805009E01D
:102030007BE0000008380240007000400038024099
:10204000FFFCFF0FC9F80000FFF702FD074604E0A0
:10205000FFF7FEFCC01B642867D83068C0438000CF
:10206000F6D5216835480A0301D5E26B1AB1C902D9
:102070001DD5216CD9B963690168277E02689B016F
:10208000C1F3014143EA0143C2F3027143EA07622B
:1020900042EA0171016029686FF0FF0300E04BE044
:1020A000A26A21F4F85103EB02221143296021684E
:1020B000890212D5E16F51450FD1238C6269016805
:1020C00007689201C1F3036142EA034242EA0162F6
:1020D000C7F3027142EA017101602178090716D540
:1020E00061690268D0F800C08B01277FC2F30362E8
:1020F000CCF3014143EA014141EA026141EA07713F
:1021000001602868E16A20F44030084328603068A4
:1021100040F080503060FFF79BFC044608E000BFB1
:10212000FFF796FC001B642802D90320BDE8F88F56
:102130003068C0438000F3D40020F7E788380240BD
:102140002DE9F04705000F4663D0444E306800F09B
:102150000F00B84209D2306820F00F0038433060D9
:10216000306800F00F00B84253D128683C4C81071A
:1021700012D5400703D5206840F4E050206028784D
:10218000000703D5206840F460402060A9682068FB
:1021900020F0F000084320602878C0072AD030499A
:1021A00068680839012810D00968022810D089070A
:1021B00000292EDA216821F0030101432160FFF795
:1021C00047FC804641F288390DE009688903EFE752
:1021D0008901EDE7FFF73CFCA0EB0801494502D976
:1021E0000320BDE8F0876868216801F00C01B1EBBD
:1021F000800FEFD1306800F00F00B8420BD9306883
:1022000020F00F0038433060306800F00F00B84213
:1022100001D00120E5E72878400705D5E968206866
:1022200020F4E050084320602878000706D528698C
:10223000216821F4604141EAC000206000F03CF8D0
:102240002168084AC1F30311515CC840064908607F
:102250000F20FFF717FC0020C3E70000003C0240FE
:1022600008380240501401080001002001480068AD
:102270007047000000010020044905480968006813
:10228000044AC1F38221515CC840704708380240BB
:10229000000100206014010804490548096800682D
:1022A000044AC1F34231515CC840704708380240CB
:1022B0000001002060140108154910B5154809688F
:1022C00011F00C0213D04110042A0FD0082A0ED1AD
:1022D0000F4C241F2268236802F03F025B0207D5DF
:1022E0002068C0F38810A0FB010106E0084610BD7D
:1022F0002168C1F38811A1FB00010023FDF7F6FF5F
:102300002168C1F30141491C4900B0FBF1F010BD47
:10231000083802400024F4002DE9F84F05004FF082
:1023200000076ED02878DFF82093A9F1040AC007CF
:10233000AAF104044CD0D9F800104846C1F3810139
:10234000012908D00068C0F3810002280AD1DAF818
:102350000000400206D52068800339D5686800284F
:10236000DFD035E06868B0F5803F0BD010B1B0F534
:10237000A02F11D0206820F480302060206820F445
:10238000802002E0206840F480302060686890B1CE
:10239000FFF75EFB06460AE0206840F480202060DC
:1023A000F0E700BFFFF754FB801B642872D8206859
:1023B0008003F7D50CE0FFF74BFB064605E000BFB6
:1023C000FFF746FB801B6428F0D820688003F7D411
:1023D0002878800742D5D9F80010484611F00C0F34
:1023E00008D00068C0F3810002280BD1DAF80000A1
:1023F000400207D42068800718D5E868012800D17A
:1024000014E01EE1E8680028206817D040F00100C1
:102410002060FFF71DFB064605E000BFFFF718FB35
:10242000801B0228C2D820688007F7D52869216858
:1024300021F0F80141EAC00020600FE020F0010027
:102440002060FFF705FB064605E000BFFFF700FB35
:10245000801B02281ED820688007F7D42878000740
:1024600029D5794869696C3000298046016812D005
:1024700041F001010160FFF7EBFA064605E000BFFD
:10248000FFF7E6FA801B022804D8D8F8000080077E
:10249000F6D510E089E021F001010160FFF7D8FADC
:1024A000064604E0FFF7D4FA801B02287DD8D8F84E
:1024B00000008007F6D4287840076BD5DFF88881C4
:1024C00008F13808D8F80000C0000BD4D8F8001084
:1024D00041F08051C8F80010D8F80000012700F042
:1024E0008050009059480168C90512D4016883469C
:1024F00041F480710160FFF7ABFA064605E000BFCA
:10250000FFF7A6FA801B64284FD8DBF80000C0054F
:10251000F6D54D4EA868683601280AD008B10528BE
:1025200011D0306820F001003060306820F00400E5
:1025300002E0306840F001003060A868A0B1FFF709
:1025400087FA83460CE0306840F004003060F0E722
:10255000FFF77EFAA0EB0B0141F28830814268D888
:1025600030688007F4D50EE0FFF772FA834607E083
:10257000FFF76EFAA0EB0B0141F28830814258D888
:1025800030688007F4D42FB1D8F8001021F08051C2
:10259000C8F80010A869E0B3D9F80010C1F38101B0
:1025A00002294ED00228206800E042E020F080702E
:1025B000206003D0FFF74CFA05463DE0FFF748FAEC
:1025C000064604E0FFF744FA801B022831D8206851
:1025D0008001F7D4D5E90921DFF874C0D5E90706F1
:1025E00095F830304F0895F82C1030430CEB074528
:1025F00045EA8212104340EA016040EA0370CAF8DB
:102600000000206840F080702060FFF721FA054646
:1026100005E014E0FFF71CFA401B022809D82068E7
:102620008001F7D50BE000BFFFF712FA401B02282C
:1026300002D90320BDE8F88F20688001F4D400207F
:10264000F8E70120F6E7000008380240007000407B
:102650000000FFFF2DE9F04104001D4616460F461D
:1026600003D094F8690018B108E00120BDE8F081BA
:10267000002084F86800204600F044F9242084F803
:1026800069002068016821F001010160204601F025
:1026900047F90128EAD0606A10B1204601F068F8D5
:1026A000206871050D4A41EA0541836843F480437F
:1026B00083602068836823F400433B438360206881
:1026C000036813400B4303602068016841F0010177
:1026D00001602046BDE8F04101F0AEB8FFFF00FC0C
:1026E00004284FF0E020016903D021F004010161CA
:1026F000704741F00401FAE7401EB0F1807F10B549
:1027000001D3012010BD4FF0E02460610F2160175C
:1027100000F03EFD0020A0610721216110BD70473F
:1027200070B501680446C8690A688B6810F00F0F1D
:102730005CD003F0010502F490762E4369D0C60701
:1027400007D0D60505D501260E62E16E41F00101E4
:10275000E166810708D5D90706D0266802213162D3
:10276000E16E41F00401E166410708D5D90706D0C2
:10277000236804211962E16E41F00201E16601075C
:102780000AD502F02001294306D0236808211962E6
:10279000E16E41F00801E166E16E002932D0800669
:1027A00004D5900602D5204601F07EF8E06E0007C1
:1027B00003D420688068400625D5204601F066F8DD
:1027C0002068816849061AD5816821F0400181603E
:1027D000606EA0B12F490165606EFEF7FDF900281B
:1027E00010D0606E016DBDE870400847830610D5BB
:1027F00093060ED52046BDE8704001F055B820463E
:10280000FFF78DFF70BD2046FFF789FF0020E066CF
:1028100070BD03062FD513062DD594F86900212825
:10282000F6D1B4F8520020B1A068B0F5805F0AD0AC
:102830000BE0086820F0800008602068016841F023
:102840004001016070BD206960B1E06C411CE16431
:1028500021680078C1F82800B4F85200401EA4F89E
:10286000520070BDE06C0088C0F308008862E06C24
:10287000801CE064F0E74006F3D55006F1D50B6804
:102880002022204623F040030B6084F8692000F0EA
:102890005AF970BD7938000810B5040003D094F8D7
:1028A000690010B107E0012010BD002084F8680025
:1028B000204600F027F8242084F869002068016889
:1028C00021F001010160204601F02AF80128EBD037
:1028D000606A10B1204600F04BFF2068416821F487
:1028E000904141602068816821F02A018160206860
:1028F000016841F0010101602046BDE8104000F090
:102900009BBF00002DE9F041344A002500680224F5
:10291000334903260827904286B021D1086840F445
:102920000020086008680621DFF8B88000F4002065
:102930000590F002CDE903618DE83100694640461B
:10294000FEF790FFA00369468DE8F1004046FEF7D0
:1029500089FF002205213420FFF7ECF834203AE00B
:10296000214A904215D1086840F480200860086828
:10297000072100F480200590CDE903614FF44070F9
:1029800069468DE831001948FEF76CFF06B0BDE8D6
:10299000F08117498842F9D11148001D016841F0C2
:1029A000200101600068694600F0200005904FF4A6
:1029B00080708DE8F1000F48FEF754FFC020694693
:1029C0008DE8F1000C48FEF74DFF0022052147205D
:1029D000FFF7B0F84720FFF7A1F8D7E7004C004019
:1029E000403802400000024000480040000C024015
:1029F00000140140001802400008024010B590F891
:102A00006A30202B3FD1C9B1C2B190F86830012B98
:102A100039D083680124416580F86840A0F85820C7
:102A2000A0F85A20B3F5805F4FF0FF0108D04FF0B7
:102A30007F0253B1B3F1805F0CD011E0012010BDD3
:102A4000026922B940F2FF1101E0036933B9A0F82D
:102A50005C1005E0016909B13F21F8E7A0F85C20AE
:102A600000212222C16680F86A2080F8681001687F
:102A70008A6842F001028A600068016841F490713E
:102A80000160002010BD022010BD05F009BB000050
:102A90002DE9F843044690F869001F4616460D4696
:102AA00020284ED1C5B1BEB194F86800012848D0A5
:102AB000012284F8682021214FF00008C4F86C80BE
:102AC00084F869105034FEF7C3FF26808146668083
:102AD000503C4FF4805619E00120BDE8F88300BF58
:102AE000B4F85200401EA4F8520000224B46802148
:102AF0002046009701F040F8A0B9A068B04201D18B
:102B0000206988B115F8010B21688862B4F8520079
:102B10000028E5D100224B4640212046009701F0D5
:102B20002BF838B10320D8E735F8020B2168C0F341
:102B30000800EAE7202184F86910002084F8688002
:102B4000CBE70220C9E770472DE9FF4101255D4829
:102B50005B4900242A040D26C0E900128460056147
:102B600059490462C0E90A14C460C0E90656056305
:102B70004561FDF72CFF18B1542154A001F034F841
:102B8000062750488DE8B0006946FDF76BFE18B186
:102B90005E214EA001F028F8022069460324CDE909
:102BA00000404848FDF75EFE18B1672147A001F0DC
:102BB0001BF804254348CDE900546946FDF752FE51
:102BC00018B1702141A001F00FF805243D48CDE96E
:102BD00000456946FDF746FE18B179213BA001F09A
:102BE00003F838486946CDE90074FDF73BFE18B19B
:102BF000822136A000F0F8FF07243248CDE90047D3
:102C00006946FDF72FFE18B18B2130A000F0ECFFD4
:102C100008252C48CDE900546946FDF723FE18B17C
:102C200094212AA000F0E0FF09242648CDE90045C0
:102C30006946FDF717FE18B19D2124A000F0D4FFCE
:102C40000A252048CDE900546946FDF70BFE18B16E
:102C5000A6211EA000F0C8FF0C241A48CDE90045AB
:102C60006946FDF7FFFD18B1AF2118A000F0BCFFC9
:102C70000B206946CDE900601248FDF7F3FD18B15D
:102C8000B82112A000F0B0FF0E206946CDE9000483
:102C90000C48FDF7E7FD18B1C1210CA000F0A4FF1E
:102CA0000F206946CDE900060648FDF7DBFD002848
:102CB00003D0CA2105A000F097FFBDE8FF81000006
:102CC00000220140EC7800200100000F2E2E2F532F
:102CD00072632F6164632E6300000000094808B529
:102CE000016841F48001016000680022052100F4C0
:102CF000800000903820FEF71DFFBDE80840382016
:102D0000FEF70CBF3038024030B58BB014491422A6
:102D10006846FDF71CFB0021684606F023FF114CB6
:102D20000F4D183D6060D5E90001CDE90501002196
:102D300005A806F093FDE060D5E90201CDE90701A1
:102D4000002107A806F08AFD2061D5E90401CDE93C
:102D50000901002109A806F081FD60610BB030BDBA
:102D600028140108E40000202DE9F04F744887B0D2
:102D7000016841F010010160016801F01001059146
:102D8000016841F004010160016801F0040105914E
:102D9000016841F020010160016801F02001059106
:102DA000016841F080010160016801F08001059136
:102DB000016841F001010160016801F00101059124
:102DC000016841F002010160016801F00201059112
:102DD000016841F008010160016801F008010591F6
:102DE000016841F04001016000684DF68145002214
:102DF000294600F0400005905248FEF723FEDFF818
:102E000048914FF47C46002231464846FEF71AFEB0
:102E1000DFF838B1002231465846FEF713FEDFF8DE
:102E200030A100227C215046FEF70CFE4FF4407783
:102E3000484800223946FEF705FE4FF4E068464850
:102E400000224146FEF7FEFD002469467F200294E1
:102E5000CDE900044846FEF705FD4FF40050009010
:102E60003E486946CDE901043A48FEF7FBFC0720DD
:102E70006946CDE900043A480294FEF7F3FC009558
:102E80000125CDE901542F4869460394FEF7EAFC79
:102E900000966946CDE9015448460394FEF7E2FCEA
:102EA00000966946CDE9015458460394FEF7DAFCD2
:102EB0007C200090CDE90154694650460394FEF70A
:102EC000D1FC4DF280606946CDE900045046029481
:102ED000FEF7C8FC00976946CDE901541D480394EC
:102EE000FEF7C0FCCDF800806946CDE901541A48D0
:102EF0000394FEF7B7FC4FF4E0506946CDE90004B7
:102F000014480294FEF7AEFCFF206946CDE90004A8
:102F100058460294FEF7A6FC4FF45E706946CDE970
:102F2000000408480294FEF79DFC00220521282099
:102F3000FEF700FE2820FEF7F1FD07B0BDE8F08F98
:102F4000303802400004024000100240000C0240F1
:102F5000001802400008024000000240000011106A
:102F600000140240F0B5464CC02289B0A823251DAC
:102F70002270012063707B26A070FF21E6702E1D59
:102F8000297000276970A9700021EF70327073708A
:102F9000B070F07008460CF005FF2068E178394CFD
:102FA00003BADFF8E4C090FA80FE00BA0A0603F420
:102FB0007F43084342EA03220EF47F03A5F1100188
:102FC00042EA132242EA106008602868E97805BAEC
:102FD00003BA00BA0A06084303F47F4305F47F05E9
:102FE000A6F1100142EA032242EA152242EA1060E9
:102FF00008603068F17803BA05BA00BA0A0603F42B
:103000007F43084305F47F0542EA0322A6F10C0141
:1030100042EA15220B4642EA106008600A1F009738
:1030200008391A48CDE901C406F0CEFA174806F06F
:103030006FFB164C94F833004007204602D506F08B
:10304000DCFB01E006F06AFB1149104806F0A8FB22
:103050000121089708A806F0FDFC094A103A02F180
:103060001C0110601422C1E900400A4903A8FDF7C1
:103070006EF9034903A80C3106F074FD09B0F0BDE8
:10308000CC00002075FF0008D54F0008CC47002079
:10309000B1510008E81301080F48002110B50D4C8C
:1030A0004FF4E1330C220460C0E90131C1600B46EA
:1030B000C0E9041281610A46C16101624162FFF701
:1030C000C9FA002805D0BDE810404F2103A000F048
:1030D0008BBD10BD004C00407C4600202E2E2F538F
:1030E00072632F75736172742E6300000E480021A5
:1030F00010B50C4C0C224FF4E1330460C0E90131EF
:10310000C160C0E904128161C16101624162FFF7DF
:10311000C3FB002805D0BDE81040642103A000F0E7
:1031200063BD10BD00480040EC4600202E2E2F53FA
:1031300072632F75736172742E6300000F48002153
:1031400010B50D4C4FF4E1330C220460C0E901319D
:10315000C1600B46C0E9041281610A46C161016287
:103160004162FFF777FA002805D0BDE810407921C9
:1031700003A000F039BD10BD001401405C470020E1
:103180002E2E2F5372632F75736172742E6300009D
:10319000090700284FEA116106DA00F00F0000F17C
:1031A000E02080F8141D704700F1E02080F8001442
:1031B0007047000010B517A000F018FD0022102085
:1031C000114605F029FF184C4FF4FB721749A06116
:1031D00005F0FCFCE071E07928B194F9071014A027
:1031E00000F004FD02E01DA000F000FDA069FF2139
:1031F00005F0BEFEE071E07930B194F907101EA031
:10320000BDE8104000F0F2BCBDE8104023A000F083
:10321000EDBC00005443505F4D4F44455F53455251
:103220005645520D0A0000001800002074140108D1
:1032300062696E64206E65745F636F6E6E20657286
:10324000726F722077697468206572725F636F6451
:10325000652069732025640D0A00000062696E64B0
:10326000206E65745F636F6E6E20636F6D706C654A
:1032700074650D0A000000006C697374656E20654A
:1032800072726F722077697468206572725F636F03
:1032900064652069732025640D0A00006C697374ED
:1032A000656E206E65745F636F6E6E20636F6D7008
:1032B0006C6574650D0A0000054C4FF4FA75012128
:1032C0002046FEF7BBFB284606F0B0FAF7E7000001
:1032D0000004024032226421012086B004F0FEFE88
:1032E000022005F0ABFA13A000F080FC174914226D
:1032F0006846FDF72CF80021684606F033FC1449B7
:10330000886014A000F072FC19490D221948FDF7DD
:10331000E5FB174D184C0020411C35F8102024F80F
:103320001020C8B20D28F7D304F00CFF142006F0CB
:103330007DFAF0E76D6F6462757320696E697420C1
:10334000636F6D706C6574650D0A00003C140108B4
:10335000E40000207374617274207461736B2068E0
:10336000616E646C65206D6F646275730D0A000098
:1033700094790020EC7800202C06002086B0274CA1
:10338000A0790228FCD12549A0691C3105F0F4FA86
:10339000E07123A000F02AFCE079002831D094F9F4
:1033A000071024A000F022FC206A06F0F2FBA069BE
:1033B00005F066FCA06905F0BFFC29494FF4FB72DB
:1033C000A06905F003FCE071E07928B194F90710D9
:1033D00024A000F00BFC02E02DA000F007FCA06987
:1033E000FF2105F0C5FDE071E07928B194F90710DF
:1033F0002EA000F0FBFBC3E735A000BF00F0F6FBFA
:10340000BEE73A4914226846FCF7A1FFE169684625
:1034100006F0A8FB206236A0F0E7000018000020AC
:103420006E6574636F6E6E5F6163636570740D0AC1
:10343000000000006E6574636F6E6E5F61636365AC
:103440007074206572726F7220776974682065727B
:10345000725F636F64652069732025640D0A000044
:103460007414010862696E64206E65745F636F6E28
:103470006E206572726F722077697468206572724F
:103480005F636F64652069732025640D0A00000086
:1034900062696E64206E65745F636F6E6E20636F29
:1034A0006D706C6574650D0A000000006C697374C2
:1034B000656E206572726F7220776974682065721C
:1034C000725F636F64652069732025640D0A0000D4
:1034D0006C697374656E206E65745F636F6E6E20C9
:1034E000636F6D706C6574650D0A0000CC13010884
:1034F000696E636F6D696E6720636F6E6E6563746E
:10350000696F6E0D0A0000001CB5044623A000F090
:103510006DFB2D4D2DA0AC6200F068FBEF6A32A070
:10352000394600F063FBA879022833D1A86A6946BE
:1035300005F02EFE8DF804009DF8040048B19DF9B9
:1035400004102EA000F052FB4FF4FA7006F06EF952
:1035500020E00098006806892DA0314600F046FB67
:103560000098002332463946006806F0D5FEB04286
:1035700002D02DA000F03AFB009805F0EBF94EB117
:10358000002405E0395D2E4800F0DEFC641CE4B246
:10359000B442F7D30A2006F049F9C4E753746172C4
:1035A000744E65745461736B202A2A2A2A2A2A2AA7
:1035B0002A2A2A2A2A2A2A2A2A2A2A2A205354410B
:1035C00052540D0A00000000180000206B68616969
:1035D0002062616F2076756E67206E686F2064755B
:1035E000206C6965750D0A006275666665725F6EAE
:1035F00065746275662025640D0A00007265637645
:10360000206572726F723A2025640D0A0000000076
:103610006C656E677468206F6620646174612069F0
:10362000732025640D0A00004552524F52204E452A
:10363000544255465F434F5059200D0A0000000088
:103640003802002010B5FEF709FABDE8104006F078
:103650007FBA00002C4830B5B7B0016841F0805106
:103660000160006800F0805036902848016841F4FD
:103670004041016000680225D82400F440403690A3
:1036800004204FF4A02203050121CDE92A532CABDD
:1036900083E831002F9024A8CDE92412FEF73CFEE8
:1036A00000B1FEE7FEF778FA00B1FEE74FF4805272
:1036B0004FF4A05100243394CDE934120F20CDE90A
:1036C0003105072131A8FEF73BFD00B1FEE74FF4BD
:1036D000306014941394169400906846FEF792FAA2
:1036E00000B1FEE7FEF7C2FD4FF47A71B0FBF1F0D6
:1036F000FFF702F80420FEF7F3FF00220F21501E0F
:10370000FEF718FA37B030BD403802400070004074
:10371000104A30B51048146800210F4B44F470046F
:103720001460083305680D4A0D4C45F0010505602D
:1037300019600368051D1340074A03600C322C60B2
:103740000568E305034C25F480250560803C116085
:10375000236030BD88ED00E000380240FFFFF6FE38
:10376000103000240148FEF7DBBF00007C4600203B
:1037700090F82410C90706D00168836A4A6822F4C9
:1037800000321A434A6090F82410890706D5016870
:10379000C36A4A6822F480321A434A6090F82410BF
:1037A000490706D50168036B4A6822F480221A4350
:1037B0004A6090F82410090706D50168436B4A68EF
:1037C00022F400421A434A6090F82410C90606D534
:1037D0000168836B8A6822F480521A438A6090F8E9
:1037E0002410890606D50168C36B8A6822F400524A
:1037F0001A438A6090F82410490611D50168036CB9
:103800004A6822F480121A434A60016CB1F5801FA5
:1038100006D10168436C4A6822F4C0021A434A6028
:1038200090F82410090606D50168826C486820F4D7
:10383000002010434860704738B500250446C5662F
:10384000FEF706F903462068006800070BD56FF005
:103850007E400090002220464FF4001100F08CF9C9
:1038600008B1032038BD202084F8690084F868502E
:1038700084F86A00002038BD10B5806B0021A0F8E4
:103880005A10A0F85210FEF74AFF10BD016820221E
:103890000B6823F490730B6001688B6823F00103BD
:1038A0008B6080F86A20704710B590F86A10B0F805
:1038B0005C202229016805D0886940F008008861F1
:1038C000022010BD8368B3F5805F01D1036973B135
:1038D0004B6A416D13404A1C42650B70B0F85A1098
:1038E000491E0904090CA0F85A1008D016E04B6ACA
:1038F000416D13400B80416D891C4165EEE7016805
:1039000020220B6823F490730B6001688B6823F00E
:1039100001038B6080F86A20FFF7B7F8002010BD24
:103920002DE9F04704468068874B884F2668D4E924
:103930000415E2690843D6F800C01021154300229F
:10394000284315460CEA030C814B4CEA000CC6F8E0
:1039500000C04FF400492068D4F80CC0466826F433
:10396000405646EA0C0646602668D4F82080A069D6
:10397000D6F808C040EA08002CF4306C4CEA000C81
:10398000C6F808C02068B8420AD11B6813F00303C8
:1039900052D0012B7AD0022B76D0032B79D177E04D
:1039A0006C4EB0420AD11B6813F00C036AD0042B92
:1039B0006CD0082B68D00C2B6BD169E0664EB042FE
:1039C0000AD11B6813F030035CD0102B5ED0202B83
:1039D0005AD0302B5DD15BE0604EB0420AD11B68FB
:1039E00013F0C0034ED0402B50D0802B4CD0C02BB6
:1039F0004FD14DE05A4EB0420DD11B6813F44073C5
:103A000040D0B3F5807F41D0B3F5007F3CD0B3F513
:103A1000407F3ED13CE0534EB0420FD11B6813F4BF
:103A2000406309D0B3F5806F30D0B3F5006F2BD071
:103A3000B3F5406F2DD12BE001212AE04A4EB04270
:103A40000DD11B6813F440531CD0B3F5805F1DD01B
:103A5000B3F5005F18D0B3F5405F1AD118E0434EBC
:103A6000B04216D11B6813F440430BD0B3F5804F1E
:103A70000CD04B4508D0B3F5404F0AD108E005E023
:103A800002E0FFE7002104E0022102E0042100E05F
:103A90000821E6694E452AD109291FD2DFE801F045
:103AA0000508141E171E1E1E1A00FEF7E5FB01E096
:103AB000FEF7F2FB0146D4F80400490001EB500187
:103AC000B1FBF0F082B20AE029496068F6E7FEF740
:103AD000F3FBEFE760684FF48031EFE701252168E1
:103AE00022F00F00C2F342021043C86028E0092907
:103AF00025D2DFE801F005080B24102424241C0043
:103B0000FEF7BAFB09E0FEF7C7FB06E06168194A59
:103B100002EB51020EE0FEF7CFFB0146D4E9002094
:103B200001EB5001B1FBF0F080B2D06008E06168B9
:103B300009EB5102B2FBF1F189B2C16000E001254D
:103B40002846BDE8F0870000F369FFEF0010014050
:103B5000903802400044004000480040004C0040C3
:103B6000005000400014014000780040007C0040FC
:103B70000048E8010024F4002DE9F041984617467A
:103B80000E460446069D1DE0681C1BD02DB1FDF7B6
:103B90005FFFA0EB0800A84214D321682020002278
:103BA0000B6823F4D0730B6021688B6823F001034A
:103BB0008B6084F8690084F86A00032084F8682028
:103BC000BDE8F0812068C06936EA000004D000201A
:103BD000B842D9D00020F3E70120F9E70148FEF709
:103BE0009FBD00005C470020FEE700000FB4054BBE
:103BF00010B503A9044A029800F018F810BC5DF84B
:103C000014FB000061520008D001002002E008C847
:103C1000121F08C1002AFAD170477047002001E046
:103C200001C1121F002AFBD1704700002DE9FF4F90
:103C30008BB09A460F460546002606E025280BD095
:103C400052460D9990476D1C761C28780028F5D1B6
:103C50000FB03046BDE8F08F0024A0460122604935
:103C600000E0044315F8013F203B02FA03F008424C
:103C7000F7D128782E2817D115F8010F44F0040445
:103C80002A280ED06FF02F022878A0F130010929E0
:103C90000AD808EB880102EB410100EB01086D1C1A
:103CA000F2E757F8048B6D1C287869283ED006DCB3
:103CB0000028CDD063280BD0642804D136E07328C7
:103CC00010D075284BD052460D999047761C85E050
:103CD00017F8040B8DF8000000208DF80100E9466C
:103CE000012003E057F8049B4FF0FF3061074FF0CD
:103CF000000401D40AE0641C44450DDA8442FADB76
:103D000019F804100029F6D106E0641C8442FCDB9B
:103D100019F804100029F8D1264404E019F8010B21
:103D200052460D999047641EF8D257E001CF4FF0EC
:103D30000A0B002802DA40422D2102E0210504D5B9
:103D40002B218DF82410012103E0E10705D020216B
:103D5000F7E70DF1200908910CE00021F9E701CF08
:103D60004FF00A0BF9E75946FCF722FB01F130024C
:103D700009F8012D0028F6D1ADEB090000F1200B68
:103D8000600701D44FF00108D84502DDA8EB0B0015
:103D900000E000208046002406E009A85246005DAD
:103DA0000D999047641C761C08988442F5DB04E06A
:103DB000302052460D999047761CB8F10001A8F1C9
:103DC0000108F5DC05E019F8010B52460D99904702
:103DD000761CBBF10001ABF1010BF4DC6D1C34E788
:103DE000092801002DE9F047040017466FF005058A
:103DF0000E4648D004F11400814607F019FDA8B31F
:103E0000AEB32078A16A04F053FE05004FF0FF38EE
:103E10003DD06E6007F018FC294648462F7207F027
:103E2000FDFC98B36C680021204607F085FF002157
:103E300020460AF0D5FC002120460AF061FF00224E
:103E40002046114609F0EAFC0021204608F0E6FA77
:103E50000020686005F11000044607F0B1FC204620
:103E600007F0D9FC284604F0CDFF1BE00BE0FFE78C
:103E70001149484607F0D2FC28B9A36A1BB10022B9
:103E80002046114698472846BDE8F0870CE00A49CD
:103E9000484607F0C3FC28B9A36A1BB1002220469C
:103EA000114698474046EFE7A36A1BB1002220461F
:103EB000114698470020E7E775010020024600B54B
:103EC00000F00EF808B1002000BD9188D088814232
:103ED00001D9081A02E01289401A101A80B200BDF6
:103EE0008188C088814201D101207047002070473D
:103EF00081880289491CC088B1FBF2F302FB1311CF
:103F0000814201D101207047002070470B460246D4
:103F100000B5FFF7E5FF00280ED1907A00280BD1FD
:103F2000D1881068405C1870D0881189401CB0FBA3
:103F3000F1F301FB1300D08000BD0160002302817A
:103F40008380C3808372704730B50D460446FFF707
:103F5000CFFF50B9A18820684554A0882189401C12
:103F6000B0FBF1F201FB1200A080A188E088814241
:103F700008D121890123401CA372B0FBF1F201FB9F
:103F80001200E08030BD000010B504464068804754
:103F900020682246BDE81040014907F0A1BC00009E
:103FA000893F000870B50C460546880706D009A36E
:103FB0004FF4CE7213A11BA0FFF718FE07F09AFB77
:103FC000A96809682160A9680C60BDE8704007F025
:103FD000B9BB00002E2E2F4D6964646C6577617249
:103FE00065732F54686972645F50617274792F4CE5
:103FF0007749502F7372632F636F72652F6D656DF4
:10400000702E63006D656D705F667265653A206D38
:10401000656D2070726F7065726C7920616C696774
:104020006E656400417373657274696F6E2022253A
:104030007322206661696C6564206174206C696E0E
:104040006520256420696E2025730A0070B504463A
:1040500007F050FB0546A0680468002C0FD02168CB
:10406000A207016006D008A34FF4A47212A11BA0FE
:10407000FFF7BCFD284607F065FB204670BD2846CB
:1040800007F060FB002070BD2E2E2F4D6964646C1C
:104090006577617265732F54686972645F506172ED
:1040A00074792F4C7749502F7372632F636F726549
:1040B0002F6D656D702E63006D656D705F6D616C49
:1040C0006C6F633A206D656D702070726F706572F1
:1040D0006C7920616C69676E65640000417373657B
:1040E0007274696F6E2022257322206661696C6587
:1040F00064206174206C696E6520256420696E20DF
:1041000025730A002DE9F04704000E4606D145A3A9
:104110004FF4C27250A154A0FFF768FD65780027E4
:1041200067606FF00C08042D677003D007F0E2FAA7
:10413000267209E04FF0000644B107F0DBFA94F96B
:104140000810414500DD277207F0FCFAA36A7BB135
:104150000022204604219847A36A4BB10022204642
:1041600011469847A36A1BB10022204602219847B6
:1041700004F11000814607F05BFB18B100214846AE
:1041800007F04CFB04F11400814607F051FB18B115
:104190000021484607F042FB012D0FD0042D0DD021
:1041A000032D0BD0606A002839D0BDE8F0471DA36D
:1041B00040F2BD1236A12CA0FFF718BD217FC1F33C
:1041C0008000002821F00401217728D1606A30B9ED
:1041D00014A340F2B31235A123A0FFF707FD606AD4
:1041E0000671606A05680C35284607F05CFB30B93B
:1041F0000CA34FF4DB7234A11BA0FFF7F7FC67623E
:1042000044B107F077FA94F90810414500DD2672B1
:1042100007F098FA2846BDE8F04707F041BBBDE833
:10422000F08700002E2E2F4D6964646C65776172F3
:1042300065732F54686972645F50617274792F4C92
:104240007749502F7372632F6170692F6170695FB6
:104250006D73672E63000000636F6E6E20213D203A
:104260004E554C4C00000000417373657274696FC9
:104270006E2022257322206661696C65642061745A
:10428000206C696E6520256420696E2025730A0004
:10429000636F6E6E2D3E63757272656E745F6D73C3
:1042A00067203D3D204E554C4C000000636F6E6E04
:1042B0002D3E63757272656E745F6D736720213D6C
:1042C000204E554C4C000000696E61766C6964208C
:1042D0006F705F636F6D706C657465645F73656D3F
:1042E0000000000070B50A4D0024064604EB4400AF
:1042F00005EBC000017D29B18068B04202D12046A3
:1043000000F034F9641CE4B20A2CEFD370BD000055
:10431000D07900202DE9F74F84B04FF00A0B00242C
:104320000646DA465F46D94602940194009404EBAF
:1043300044004F490A2F039001EBC00898F814502D
:1043400016D0002D24D0012D08D0022D06D249A36D
:1043500040F2251255A165A0FFF748FC66B131680F
:10436000D8F80400814207D160B207B0BDE8F08FF1
:10437000002DE8D167B20BE0012D17D0022D07D335
:10438000B8F812000099884202D34FFA84FA0090DC
:10439000641CE4B20A2CCAD3059881074FF0FF30A1
:1043A000E3D40A2F18D01ADAFCB242E0304803995D
:1043B00050F831000028B8F8120006D0029988425F
:1043C000E6D34FFA84F90290E2E701998842DFD3FD
:1043D0004FFA84FB0190DBE70599C907C5D0BAF114
:1043E0000A0F0FDA0AF0FF04214804EB440150F8E9
:1043F000310090B11FA340F26F1246A13BA0FFF71E
:10440000F5FB0AE0BBF10A0F02DA0BF0FF0404E04F
:10441000B9F10A0FA9DA09F0FF040A2C06D315A393
:1044200040F2811241A131A0FFF7E0FB204600F0ED
:104430009DF80A2C06D30FA340F285123BA12BA0B6
:10444000FFF7D4FB0A4804EB440100EBC105287DCB
:1044500030B108A34FF4C37239A124A0FFF7C6FB03
:104460000EB130686860002160B269827DE70000AB
:10447000D07900202E2E2F4D6964646C65776172AF
:1044800065732F54686972645F50617274792F4C40
:104490007749502F7372632F636F72652F6970763F
:1044A000342F6574686172702E63000073746174D8
:1044B00065203D3D204554484152505F535441547E
:1044C000455F50454E44494E47207C7C20737461C3
:1044D0007465203E3D204554484152505F5354413D
:1044E00054455F535441424C45000000417373658D
:1044F0007274696F6E2022257322206661696C6573
:1045000064206174206C696E6520256420696E20CA
:1045100025730A006172705F7461626C655B695D2E
:104520002E71203D3D204E554C4C000069203C2012
:104530004152505F5441424C455F53495A45000037
:104540006172705F7461626C655B695D2E7374612A
:104550007465203D3D204554484152505F535441BD
:1045600054455F454D5054590000000070B5074C4C
:1045700000EB4005002654F8350018B105F05AFF4D
:1045800044F8356004EBC500067570BDD079002095
:104590002DE9F0430D00074685B009D07C684FF443
:1045A00080782088404539D12079062836D109E025
:1045B0001CA34FF4227229A12CA0FFF717FB05B012
:1045C000BDE8F0836079042828D16088082825D1C7
:1045D000D4F80E0004906868A16920B1814202D12C
:1045E0000126334601E000260223284604F1080292
:1045F00004A9914600F094FBE08840450ED16EB1CD
:104600000222284604AB291DCDE90232CDE900196A
:1046100005F12D034A46194600F084FA384605F0A4
:1046200009FFCCE72E2E2F4D6964646C65776172AB
:1046300065732F54686972645F50617274792F4C8E
:104640007749502F7372632F636F72652F6970768D
:10465000342F6574686172702E6300006E65746932
:104660006620213D204E554C4C000000417373657F
:104670007274696F6E2022257322206661696C65F1
:1046800064206174206C696E6520256420696E2049
:1046900025730A00FEB5040015460E4606D141A357
:1046A00040F21B324DA151A0FFF7A0FA36B93DA34D
:1046B0004FF4477257A14DA0FFF798FA35B939A3C7
:1046C00040F21D3256A149A0FFF790FA2868214612
:1046D00001F03EFA08B1564B3CE02868C0F30311E4
:1046E0000E2922D0D4E901210A400140914208D08C
:1046F00080B2A0F57E41A93903D0E068A0B304F1EF
:104700000C054C4A4C49107800EB400301EBC30305
:104710001F7D022F2CD32F685B689F4228D1024651
:104720003146204600F08AF8FEBD01228DF80420B3
:1047300000208DF805005E218DF80610687801AB29
:1047400000F07F008DF80700A8788DF80800E87861
:104750008DF809004FF4006004F12D0231460090FD
:10476000204600F0BBFBFEBDFFE76FF00300FAE759
:104770005FF0000000EB400301EBC3031F7D022F3D
:1047800006D32F685B689F4202D1C0B21070C6E7A3
:10479000401C40B20A28EDDB32462946204600F094
:1047A000D5F8E0E72E2E2F4D6964646C6577617251
:1047B00065732F54686972645F50617274792F4C0D
:1047C0007749502F7372632F636F72652F6970760C
:1047D000342F6574686172702E6300006E657469B1
:1047E0006620213D204E554C4C00000041737365FE
:1047F0007274696F6E2022257322206661696C6570
:1048000064206174206C696E6520256420696E20C7
:1048100025730A007120213D204E554C4C000000AC
:1048200069706164647220213D204E554C4C00003B
:10483000E414010874010020D07900202DE9F84328
:104840001546884606461C4802EB450100EBC104AC
:10485000207D022806D219A34FF43B7225A131A076
:10486000FFF7C4F9144A05EB4501207D02EBC105B1
:104870000C35022813D1608A0327B0F58E7F04D946
:10488000211D304600F006FA07E0B0F5877F06D319
:10489000211D2A46304600F003FA00B927754FF46F
:1048A000006006F12D022B4641460090304600F094
:1048B00015FBBDE8F8830000D07900202E2E2F4D87
:1048C0006964646C6577617265732F54686972649A
:1048D0005F50617274792F4C7749502F7372632F38
:1048E000636F72652F697076342F657468617270BA
:1048F0002E6300006172705F7461626C655B61724F
:10490000705F6964785D2E7374617465203E3D202C
:104910004554484152505F53544154455F535441AC
:10492000424C4500417373657274696F6E20222595
:104930007322206661696C6564206174206C696E05
:104940006520256420696E2025730A002DE9FC5F2F
:10495000824614462D300190086888464FF0FF3695
:104960004FF0000B514601F0F3F8002828D1D8F899
:104970000000C0F303110E2922D0B8F1000F1FD0A0
:1049800000281DD0012152464046FFF7C3FC070016
:1049900018D4394907EB470901EBC905287D0028E0
:1049A00012D0012808D0022806D234A340F2C73220
:1049B00040A14AA0FFF71AF9BBF1000F0AD108E0A5
:1049C0006FF00F00BDE8FC9FC5F808A00121297514
:1049D00000E034B94146504600F05CF9002C064630
:1049E000F0D0287DDFF8908002280DD345484FF4A1
:1049F000006105F10C0307705046019A00912146B1
:104A000000F06CFA064635E0012833D14FF47B768E
:104A1000254668892989884207D1286828B117A3C3
:104A2000324639A12DA0FFF7E1F8287B01280ED0EE
:104A300029890022022005F0B1F8050018D021468E
:104A400005F074FB58B1284605F0F4FC10E02D6821
:104A5000002DDED12546204605F046FF45B158F829
:104A6000390008B105F0E6FC002648F8395001E0AD
:104A70004FF0FF363046A5E7D07900202E2E2F4D7F
:104A80006964646C6577617265732F5468697264D8
:104A90005F50617274792F4C7749502F7372632F76
:104AA000636F72652F697076342F657468617270F8
:104AB0002E6300006172705F7461626C655B695D9A
:104AC0002E7374617465203D3D2050454E44494E1F
:104AD00047206F7220535441424C45004173736527
:104AE0007274696F6E2022257322206661696C657D
:104AF00064206174206C696E6520256420696E20D5
:104B000025730A00740100206E6F207061636B656D
:104B1000742071756575657320616C6C6F77656461
:104B2000210000002DE9FF4F81B0984606004FF0AC
:104B30000007DDE90FA9DDF838B006D12BA34FF44B
:104B40008B6238A13BA0FFF751F800221C21022004
:104B500005F024F8050046D068891C2806D223A356
:104B600040F263423DA133A0FFF740F86C68119812
:104B700002F0A0F8E08096F82C00062806D0444900
:104B80001AA32CA040F26A42FFF730F8D8F80010C0
:104B90000623A1604FF48071B8F80400A081DAF810
:104BA0000020C4F812200822BAF80400E082DBF8E2
:104BB0000000C4F80E00D9F80000A0610420218094
:104BC00040F606016280237160713046DDE9022300
:104BD0000091294600F082F9284605F02BFC384662
:104BE00005B0BDE8F08F4FF0FF30F9E72E2E2F4DC6
:104BF0006964646C6577617265732F546869726467
:104C00005F50617274792F4C7749502F7372632F04
:104C1000636F72652F697076342F65746861727086
:104C20002E6300006E6574696620213D204E554C50
:104C30004C000000417373657274696F6E20222509
:104C40007322206661696C6564206174206C696EF2
:104C50006520256420696E2025730A0063686563FA
:104C60006B20746861742066697273742070627559
:104C7000662063616E20686F6C6420737472756364
:104C800074206574686172705F686472000000006F
:104C9000C4160108014A00F003B80000E41401083A
:104CA0007FB5064D0124031DCDE90214CDE9003581
:104CB00029331946FFF736FF04B070BDEA14010826
:104CC00070B5164D5FF0000404EB440005EBC00125
:104CD000087DF0B14A8A521C92B24A82B2F5967FA0
:104CE0000AD2012806D003280AD004280AD00128B5
:104CF0000BD00EE0052A08D32046FFF737FC08E06A
:104D0000042000E00220087503E08868091DFFF711
:104D1000C1FF641CE4B20A2CD6D370BDD079002048
:104D2000F8B5044690F82C001F46154606280E4696
:104D300006D020A340F2AB122CA135A0FEF756FFFF
:104D40009EB3306888B3214600F002FF68BB30781C
:104D5000C0F303100E2829D0224639463046FFF70B
:104D6000D9FA002820DB344A00EB4001022302EB91
:104D7000C1000375002384602E68C660AE88068279
:104D8000438252F8316076B142F831304FF400601E
:104D90002B4604F12D0231460090204600F09EF88B
:104DA000304605F047FB0020F8BDFFE76FF00F002D
:104DB000FAE700002E2E2F4D6964646C65776172EE
:104DC00065732F54686972645F50617274792F4CF7
:104DD0007749502F7372632F636F72652F697076F6
:104DE000342F6574686172702E6300006E6574699B
:104DF000662D3E6877616464725F6C656E203D3D30
:104E0000204554485F4857414444525F4C454E004A
:104E1000417373657274696F6E2022257322206658
:104E200061696C6564206174206C696E652025641D
:104E300020696E2025730A00D079002070B50446E1
:104E400040890D460E283CD9606801788689CA07DA
:104E500014D0012905D020490622FBF79CFA48B15D
:104E60000CE0417851B980785E2807D1607B40F032
:104E7000100002E0607B40F008006073082E6FF0C5
:104E80000D0103D0B6F5C16F1BD10FE095F83300CB
:104E9000000716D560890E2813DB204605F0A0FB1D
:104EA00078B92946204600F095FF12E095F83300C6
:104EB000000706D560890E2803DB204605F090FB2D
:104EC00018B1204605F0B6FA03E029462046FFF760
:104ED0005FFB002070BD0000E41401082DE9F041E3
:104EE0001F4690460E460446069801F0E3FE0E214A
:104EF0000546304605F074FB18B16FF00100BDE8BF
:104F0000F0817068858139680160B9888180D8F83E
:104F10000020C0F80620B8F80410418194F82C0055
:104F2000062806D006A340F22B1213A11FA0FEF7FD
:104F30005DFEA26931462046BDE8F0411047000001
:104F40002E2E2F4D6964646C6577617265732F54E2
:104F5000686972645F50617274792F4C7749502F81
:104F60007372632F6E657469662F65746865726EFF
:104F700065742E63000000006E657469662D3E68DE
:104F800077616464725F6C656E206D757374206206
:104F900065203620666F722065746865726E657470
:104FA0005F6F757470757421000000004173736544
:104FB0007274696F6E2022257322206661696C65A8
:104FC00064206174206C696E6520256420696E2000
:104FD00025730A0010B5040006D10BA340F263222A
:104FE0000EA112A0FEF702FE1A49732061611A4950
:104FF000A161742184F83400204684F8351001F052
:105000000FFD002010BD00002E2E2F5372632F6560
:10501000746865726E657469662E63006E65746986
:105020006620213D204E554C4C00000041737365B5
:105030007274696F6E2022257322206661696C6527
:1050400064206174206C696E6520256420696E207F
:1050500025730A0095460008016C00080B4E0446B3
:105060004FF0FF373946306804F03CFD0028F9D195
:10507000204601F063FD0500F4D0226921469047E7
:105080000028F5D0284605F0D5F9F1E7E00000202A
:1050900070B590F8330086B01B4C4FF480461B4D22
:1050A0004FF00102400717D580212046FCF7CAFCCB
:1050B000002231462046FCF7C5FC15A0FEF796FD00
:1050C0001A4914226846FBF742F90021684604F0A9
:1050D00049FD686206B070BD31462046FCF7B2FC5F
:1050E000002220468021FCF7ADFC11A0FEF77EFDDA
:1050F000286A04F04EFD686A04F04BFD06B013A068
:10510000BDE87040FEF772BD0004024018000020A8
:105110006368616E676520636F6E6E6563742054AB
:1051200043502069732075700D0A0000A413010814
:1051300053544F5020676574206461746120657416
:105140006865726E65740D0A000000006368616E28
:10515000676520636F6E6E656374205443502069E9
:105160007320646F776E0D0A0000000008B50446D6
:105170000020009001210D486A46FCF7BFF9009815
:1051800000F004000090216891F83320520704D405
:1051900038B1084604F015FB03E010B9084604F0E6
:1051A00003FBC82004F042FBE4E70000A4780020E1
:1051B0002DE9FC41002506460195009590F8330045
:1051C000400742D5254C606868B3002120464FF463
:1051D0008052FCF7EBFAFCF73BFC4FF47A77019036
:1051E0001E4801216A46FCF789F9FCF731FC019958
:1051F000401AB84217D800988006F1D517481021F8
:105200006A46FCF77BF90098410703D54FF400612B
:10521000E16000E0E560800701D5A5600DE04FF496
:105220008040A06009E0D4E90210C00840EA5100C3
:1052300082B20A480021FCF7B9FA08480021FBF7BE
:105240006FFE0648FCF7A4F902E00448FCF7E2F917
:105250003046FFF71DFFBDE8FC810000A478002068
:1052600013B504486423012269460068FDF710FC69
:1052700000981CBDFC0000202DE9F041314C207944
:1052800001280CD030A0FEF7B1FC02F055FBA08243
:1052900002F05EFBA08201216171BDE8F08134A0C3
:1052A000FEF7A4FC02F048FB608202F051FBA082F2
:1052B00002F04CFBA0723748628A0088824205D80F
:1052C000A38A834202D8D118814204D9BDE8F041B3
:1052D00031A0FEF78BBC39480178A08902F090FF1D
:1052E000658A2BE002F02CFB354900F001036A1CB3
:1052F00000F0020700F008064B5593B25A1C92B218
:10530000CF5400F00405531C8D549BB200F01007DD
:1053100000F0200C00F0400200F08005581C80B224
:10532000CE54431C0F5498B2431C01F800C098B2ED
:10533000431C0A549AB2901C8D5485B2A08A8542AF
:10534000D0D3AAE71800002066756E6374696F6E8B
:1053500031365F68616E646C65205245434549563D
:10536000455F524553504F4E53450D0A0000000013
:1053700066756E6374696F6E31355F68616E646CFB
:105380006520524543454956455F52455155455361
:10539000540D0A004C0000206572726F7220667511
:1053A0006E6374696F6E203135207265636569764E
:1053B0006520726571756573740D0A0048000020E0
:1053C0009C04002070B5224C607901280BD021A0EC
:1053D000FEF70CFC02F0B0FAA08202F0B9FAA0824B
:1053E0000121617170BD25A0FEF700FC02F0A4FA56
:1053F000608202F0ADFAA08202F0A8FAA0722848FA
:10540000628A0088824205D8A38A834202D8D118D2
:10541000814204D9BDE8704022A0FEF7E7BB2A48CC
:105420000178A08902F024FF284E658A0BE000BFB6
:1054300002F094FA26F815000246294624A0FEF749
:10544000D5FB6D1CADB2A08A8542F1D370BD0000C2
:105450001800002066756E6374696F6E31365F6880
:10546000616E646C6520524543454956455F52451F
:1054700053504F4E53450D0A0000000066756E6391
:1054800074696F6E31365F68616E646C6520524579
:1054900043454956455F524551554553540D0A0001
:1054A0004A0000206572726F722066756E637469BF
:1054B0006F6E20313620726563656976652072658E
:1054C00071756573740D0A00480000202C060020D9
:1054D0006D6F646275735F72656769737465725F1F
:1054E0007274755B25645D2069732025640D0A0064
:1054F00070B5174D2878012808D016A0FEF776FB66
:1055000002F024FA1C4E0024A8721AE01BA0FEF739
:105510006DFB02F011FA688202F01AFAA8820246C4
:10552000698AA889BDE8704002F0DABE02F008FA84
:1055300026F814000246214619A0FEF757FB641C0A
:10554000A4B2A87A8442F1D30120287070BD000073
:105550001800002066756E6374696F6E315F686154
:105560006E646C6520524543454956455F5245502F
:105570004F4E53450D0A00004402002066756E63CD
:1055800074696F6E315F68616E646C65205245436B
:10559000454956455F524551554553540D0A000043
:1055A0006275665F72656769737465725F74637054
:1055B0005F66756E63315B25645D206973202564C9
:1055C0000D0A000070B5174D6878012808D016A0A4
:1055D000FEF70CFB02F0BAF91C4E0024A8721AE088
:1055E0001BA0FEF703FB02F0A7F9688202F0B0F9F6
:1055F000A8820246698AA889BDE8704002F05ABFB5
:1056000002F09EF926F814000246214619A0FEF782
:10561000EDFA641CA4B2A87A8442F1D30120687028
:1056200070BD00001800002066756E6374696F6EAF
:10563000325F68616E646C6520524543454956454A
:105640005F5245504F4E53450D0A00004402002062
:1056500066756E6374696F6E325F68616E646C65E7
:1056600020524543454956455F524551554553548F
:105670000D0A00006275665F726567697374657212
:105680005F7463705F66756E63325B25645D20696D
:10569000732025640D0A000070B5174DA878012805
:1056A00008D016A0FEF7A2FA02F050F91C4E002412
:1056B000A8721AE01BA0FEF799FA02F03DF9688281
:1056C00002F046F9A8820246698AA889BDE87040BE
:1056D00002F0CABF02F042F926F814000246214641
:1056E00019A0FEF783FA641CA4B2A87AB4EB500F99
:1056F000F0D30120A87070BD1800002066756E639D
:1057000074696F6E335F68616E646C6520524543E7
:10571000454956455F5245504F4E53450D0A0000CE
:105720004402002066756E6374696F6E335F686152
:105730006E646C6520524543454956455F5245515C
:10574000554553540D0A00006275665F72656769BE
:10575000737465725F7463705F66756E63335B2527
:10576000645D2069732025640D0A000070B5174D33
:10577000E878012808D016A0FEF738FA02F0E6F81B
:105780001C4E0024A8721AE01BA0FEF72FFA02F0AC
:10579000D3F8688202F0DCF8A8820246698AA889F8
:1057A000BDE8704002F0CABF02F0D8F826F8140035
:1057B0000246214619A0FEF719FA641CA4B2A87A81
:1057C000B4EB500FF0D30120E87070BD180000203A
:1057D00066756E6374696F6E345F68616E646C6564
:1057E00020524543454956455F5245504F4E53451B
:1057F0000D0A00004402002066756E6374696F6EC6
:10580000345F68616E646C65205245434549564576
:105810005F524551554553540D0A00006275665F4D
:1058200072656769737465725F7463705F66756EC5
:1058300063345B25645D2069732025640D0A0000D4
:105840000A46032100F0F4B82DE9FE4F8A46444988
:105850000446D1F8088098F800000007870E142F3E
:1058600078D36089042875D360680078002871D0E7
:1058700008286FD1486901F11405C0F303120E2AFC
:1058800068D08946096800F063F9002862D1208950
:1058900008285FD307F10E0120460E4604F0A0FE53
:1058A00000282DD020890022384481B2022004F043
:1058B00075F906004ED0718907F10800814216D3B0
:1058C00070683A464146FAF742FD7942304604F0A4
:1058D00087FE002806D0AF2222A330A13DA0FEF70C
:1058E00085F904E02146304604F020FC18B130462A
:1058F00004F0A0FD2EE0204604F09CFD34460CE0B0
:105900007142204604F06CFE002806D0C02215A388
:105910003AA130A0FEF76AF91CE0666839462046D5
:1059200004F05EFEB0B9606800212A68FF27C260FB
:105930000A46D9F810300361012331707180077273
:1059400041812046CDE900133B462946CDF808A009
:1059500000F012FB2046BDE8FE4F04F06BBD0000D6
:1059600048AB00202E2E2F4D6964646C6577617200
:1059700065732F54686972645F50617274792F4C3B
:105980007749502F7372632F636F72652F6970763A
:10599000342F69636D702E630000000069636D70C1
:1059A0005F696E7075743A206D6F76696E672072EC
:1059B0002D3E7061796C6F616420746F2069636D36
:1059C0007020686561646572206661696C65640A4F
:1059D00000000000417373657274696F6E202225A8
:1059E0007322206661696C6564206174206C696E45
:1059F0006520256420696E2025730A0069636D7037
:105A00005F696E7075743A20726573746F72696E37
:105A100067206F726967696E616C20702D3E7061DE
:105A2000796C6F6164206661696C65640A000000CE
:105A30002DE9FF479246894600220646242101208F
:105A400004F0ACF8050031D06889242806D218A3E8
:105A500040F2611224A12FA0FEF7C8F86C684FF045
:105A6000000877681C2284F8009084F801A0A4F84C
:105A70000480A4F80680686871680830FAF767FC4B
:105A8000F868039003A800F019FC60B1A4F8028044
:105A90000122CDF80080FF23CDE901200021284616
:105AA00003AA00F069FA284604F0C4FCBDE8FF87A9
:105AB0002E2E2F4D6964646C6577617265732F5467
:105AC000686972645F50617274792F4C7749502F06
:105AD0007372632F636F72652F697076342F6963F9
